:020000040800F2
:10000000A80400200D020008471700087315000817
:100010004517000879020008C91C0008000000000C
:100020000000000000000000000000006D17000844
:100030007B020008000000006B1700086F17000823
:1000400027020008270200082702000827020008EC
:1000500027020008270200082702000827020008DC
:1000600027020008270200082702000827020008CC
:1000700027020008270200082702000827020008BC
:1000800027020008270200082702000827020008AC
:10009000270200082702000827020008270200089C
:1000A000270200082702000827020008270200088C
:1000B000270200082702000827020008270200087C
:1000C000270200082702000827020008270200086C
:1000D000270200082702000827020008270200085C
:1000E000270200082702000827020008270200084C
:1000F000270200082702000827020008270200083C
:10010000270200082702000827020008270200082B
:10011000270200082702000827020008270200081B
:10012000270200082702000827020008270200080B
:1001300027020008270200082702000827020008FB
:1001400027020008270200082702000827020008EB
:10015000270200082702000827020008BD1C00082B
:1001600027020008270200082702000827020008CB
:1001700027020008270200082702000800000000EC
:1001800027020008270200082702000827020008AB
:10019000270200082702000827020008270200089B
:1001A000270200082702000827020008270200088B
:1001B000270200082702000827020008270200087B
:1001C000270200082702000800000000270200089C
:1001D000270200082702000827020008270200085B
:1001E000270200082702000827020008270200084B
:1001F0002702000827020008DFF80CD000F02AF8D8
:1002000000480047E91C0008A80400200648804771
:1002100006480047FEE7FEE7FEE7FEE7FEE7FEE7EB
:10022000FEE7FEE7FEE7FEE7FD170008F90100081C
:10023000D2B201E000F8012B491EFBD27047002228
:10024000F6E710B513460A4604461946FFF7F0FFD5
:10025000204610BD064C074D06E0E06840F0010363
:1002600094E8070098471034AC42F6D3FFF7C8FF74
:10027000141E0008341E0008FEE7704790F8351081
:10028000022903D08021416501207047052180F8B3
:1002900035100068016821F00101016000207047FD
:1002A0002DE9F84FDFF89CE100224FF001084FF0F4
:1002B000030B4FF00F0A00BF0B6808FA02F423404B
:1002C000A34271D14D68022D01D0122D0FD1D50856
:1002D0000E69570700EB8505A9462D6AFF0E0AFA3D
:1002E00007FCBE4025EA0C052E43C9F820600F79B3
:1002F000550006680BFA05FC07F0030726EA0C0612
:10030000AF40374307604E68012E05D0022E03D060
:10031000112E01D0122E0ED18668CF6826EA0C0667
:10032000AF403743876046680F79A643C7F300178D
:10033000974037434760C4688E6824EA0C04AE4097
:100340002643C6604C68E40075D53F4C256845F4EB
:1003500080452560246822F00306950704F4804454
:1003600000943A4C2D0F2644D6F80848DFF8E0C038
:100370000AFA05F7604524EA070401D100272EE0B8
:10038000344FB84201D1012729E0334FB84201D19F
:10039000022724E0314FB84201D103271FE0304F3C
:1003A000B84202D104271AE045E02E4FB84201D1ED
:1003B000052714E02C4FB84201D106270FE02B4F40
:1003C000B84201D107270AE0294FB84201D10827D6
:1003D00005E0284FB84201D1092700E00A27AF40C5
:1003E00027437546C6F808784E68DEF80040F603E5
:1003F00024EA030400D51C43124E2C60361D4D68C0
:100400003468AD0324EA030400D51C430D4F346067
:1004100008374D683C68ED0224EA030400D51C430C
:10042000084D3C600C354E682C68B60224EA030483
:1004300000D51C432C60521C102AFFF43DAFBDE8D0
:10044000F88F0000003C0140443802400030014079
:10045000000002400004024000080240000C02407C
:10046000001002400014024000180240001C02402C
:1004700000200240002402400AB181617047090453
:10048000FBE70000014800687047000010000020F2
:1004900002480168491C01607047000010000020FC
:1004A000032010B500F060F8002000F005F800F01F
:1004B00017F8002010BD0000084910B504464FF49D
:1004C0007A700968B1FBF0F000F0CAFE0022214604
:1004D000501E00F029F8002010BD0000140000207C
:1004E0000A4808B5016841F080510160006800F0D9
:1004F000805000900548001D016841F48041016072
:10050000006800F48040009008BD000040380240C0
:10051000410900F01F028900012001F1E021904013
:10052000C1F80001704700000E4BF0B41B680D4687
:10053000C3F30223C3F10706042E00D90426191DB4
:10054000072901D2002300E0DB1E012404FA06F192
:100550009C40491E2940641E994014402143F0BC30
:1005600001F0F2B80CED00E0064900F0070210B50A
:100570004FF6FF040868044B204040EA022018436D
:10058000086010BD0CED00E00000FA052DE9F84F01
:1005900004460078DFF888844FF000063546C0072F
:1005A0000ED0D8F8001021F40001C8F80010D8F8D7
:1005B0000010626B1143C8F80010606B00B901268F
:1005C0002068DFF85C94000309F1840910D5E26B20
:1005D000D9F8001021F440111143C9F80010E06B64
:1005E000B0F5801F01D010B102E0012600E0012526
:1005F0002068C00210D5226CD9F8001021F4400107
:100600001143C9F80010206CB0F5800F01D010B173
:1006100002E0012600E001252068C10100D5012685
:10062000800658D5FE483830016841F0805101609D
:100630000068DFF8F0A300F080500090DAF80010B6
:1006400041F48071CAF80010FFF71CFF074604E070
:10065000FFF718FFC01B64287ED8DAF80000C00539
:10066000F6D5EF4F6837386810F4407023D0218EEC
:1006700001F4407181421ED03868396820F440701E
:1006800041F480313960396821F480313960386053
:100690003868C0070FD0FFF7F5FE824641F2883B6D
:1006A00006E000BFFFF7EEFEA0EB0A015945D3D8E4
:1006B00038688007F6D5216BC1F301200328404636
:1006C0007ED0016821F4F8110160218E3868C1F3F1
:1006D0000B01084338602078C0060BD5D9F800100C
:1006E00021F08071C9F80010D9F80010A26B1143F5
:1006F000C9F800102188CA488830490405D5626EBF
:10070000016821F44031114301602188090405D5B5
:10071000A26E016821F44021114301602168C903E0
:1007200005D5E26E016821F4401111430160216892
:10073000890305D5226F016821F44001114301604E
:100740002178490605D5626C016821F00301114347
:1007500001602178090600E01EE105D5A26C016860
:1007600021F00C01114301602188C90505D5E26C17
:10077000016821F03001114301602188890505D508
:10078000226D016821F0C0011143016021884905F3
:1007900005D5626D016821F4407111430160218823
:1007A000090505D5A26D016821F44061114301607E
:1007B0002188C90407D5E26D016821F4405100E0A9
:1007C00021E0114301602188890405D5226E01686A
:1007D00021F44041114301602168490205D5A26F0F
:1007E000016821F08061114301602168890213D5FD
:1007F000E26F016821F0006111430160E16FB1F126
:10080000006F08D008E0884A0368114023F4F8120A
:100810000A43026059E7012521680A0700D501252E
:10082000490305D5626F016821F0407111430160F1
:100830002168090206D5D4F88020016821F0805192
:10084000114301602168490106D5D4F8842001686C
:1008500021F00051114301602068000108D5D4F84F
:100860008820D9F8001021F000711143C9F8001058
:100870002068C00008D5D4F88C20D9F8001021F0E9
:1008800080611143C9F80010012E4FF4403B4FF036
:10089000706A03D02068B0F1007F7CD1604E083EC2
:1008A000306820F080603060FFF7ECFD074604E020
:1008B000FFF7E8FDC01B64286ED859480838006867
:1008C0000001F5D42078DFF858E1C0070EF17C0E66
:1008D00035D0606B98BBDEF800209BFAABF7DEF8F2
:1008E00000009AFAAAFCB7FA87F847F6C07602F435
:1008F0004032616896FAA6F722FA08F2BCFA8CF840
:10090000B7FA87FC9BFAABF600F0706001FA0CF1C5
:10091000B6FA86F69AFAAAF720FA08F04FF0E04302
:10092000B24093FAA3FCA668B7FA87F71143B84020
:10093000BCFA8CF2014396403143CEF80010206897
:10094000010303D5E16BB1F5801F05D0C00243D58B
:10095000206CB0F5800F3FD1DEF800109BFAABF6AB
:100960004FF0E04247F6C07CB6FA86F7DEF800604A
:1009700001F4403160689CFAACFCF9409AFAAAF79D
:100980009BFAABF3B7FA87F892FAA2F7BCFA8CFCA1
:10099000B7FA87F701E097E012E100FA0CF0B3FA3A
:1009A00083FCE36806F0E04601FA0CF192FAA2F249
:1009B000FE4003FA08F3B2FA82F70843BE40184338
:1009C0003043CEF80000D9F80000616A20F01F0023
:1009D000491E0843C9F800002068C0013DD5DEF873
:1009E00000109AFAAAF0DEF8003047F6C07601F05F
:1009F0007061B0FA80F09BFAABF7C1404FF0E04C69
:100A0000009196FAA6F621699CFAACFCB7FA87F732
:100A1000B6FA86F89AFAAAF6B940BCFA8CFC05E058
:100A20000838024000700040FFFCFF0F60684FF084
:100A3000E04703F0E042B6FA86F600FA08F0084311
:100A4000009997FAA7F722FA0CF2B140B7FA87F6A5
:100A50000843B2401043CEF800002068800122D540
:100A600047F6C07004F1080190FAA0F260689BFAA2
:100A7000ABFCB2FA82F346C9BCFA8CFC98409AFAF5
:100A8000AAF806FA0CF64FF0E047B8FA88FC97FA95
:100A9000A7F7304302FA0CF2B7FA87F61043B140D9
:100AA0000843CEF800007F4E306840F08060306030
:100AB000FFF7E8FC074604E0FFF7E4FCC01B6428EE
:100AC0007ED830680001F7D5002D7AD0754D2868A2
:100AD00020F080502860FFF7D5FC064605E000BFF7
:100AE000FFF7D0FC801B64286AD86E480068C043BA
:100AF0008000F5D56B48216888300A0301D5E26B88
:100B00001AB1C9023ED5216CE1BB02689BFAABF673
:100B10004FF0E04347F6C071B6FA86F7066802F474
:100B2000403291FAA1FC6169FA409AFAAAF7BCFA3C
:100B30008CFC9BFAABF501FA0CF1B7FA87F893FA43
:100B4000A3F7B5FA85FCA56906F0E04602FA0CF2B7
:100B5000B7FA87F793FAA3F3FE4005FA08F5B3FA5C
:100B600083F311439E402943314301606FF0FF0737
:100B7000D9F80010A36A21F4F85107EB03231943B5
:100B8000C9F800102168890237D5E16FB1F1006F13
:100B900033D101689AFAAAF205684FF0E04847F6A7
:100BA000C0769BFAABFC96FAA6F798FAA8F601F085
:100BB0007061B6FA86F6BCFA8CFCB2FA82F201E0F9
:100BC00067E06DE021FA02FE216AB7FA87F76269F1
:100BD0009AFAAAF305F0E04501FA0CF1BA40B3FA2B
:100BE00083F398FAA8F7F5400A430EFA03F1B7FA2F
:100BF00087F30A439D402A4302602178090739D5CB
:100C00000168D0F800809BFAABF79AFAAAFC47F685
:100C1000C07308F44032B7FA87F893FAA3F7636910
:100C200022FA08F2BCFA8CF8B7FA87FC9BFAABF60A
:100C300001F0706103FA0CF3B6FA86F69AFAAAF795
:100C400021FA08F14FF0E045B24095FAA5FCE669BB
:100C5000B7FA87F71343B940BCFA8CF20B439640BE
:100C600033430360D9F80000E16A20F440300843C0
:100C7000C9F800000B4C206840F080502060FFF75E
:100C800001FC054608E000BFFFF7FCFB401B6428A1
:100C900002D90320BDE8F88F2068C0438000F3D458
:100CA0000020F7E7003802402DE9F047DFF84C81DB
:100CB00005460E46D8F8000000F00F00B0420CD2F6
:100CC000D8F8001021F00F013143C8F80010D8F80F
:100CD000000000F00F00B04265D12878484C800732
:100CE00005D5A968206820F0F00008432060287826
:100CF000C00747D0424968680839012816D00968FA
:100D0000022816D0890700294DDA216821F0030155
:100D100001432160FFF7B6FB6968074641F288305E
:100D200001290FD00229814619D027E009688903DB
:100D3000E9E78901E7E700BFFFF7A4FBC11B4945CD
:100D400001D918E081462068C0F381000128F3D161
:100D500018E000BFFFF796FBC11B49450BD8206880
:100D6000C0F381000228F5D10CE000BFFFF78AFB39
:100D7000C11B494502D90320BDE8F087206810F067
:100D80000C0FF3D1D8F80010404601F00F01B1422A
:100D90000BD9016821F00F0131430160006800F0B8
:100DA0000F00B04201D00120E6E72878400705D5C2
:100DB000E968206820F4E0500843206028780007A4
:100DC00006D52869216821F4604141EAC00020600D
:100DD00000F04CF82168F02292FAA2F201F0F00142
:100DE000B2FA82F2D140074A515CC8400649086015
:100DF0000020FFF761FB0020BEE70000003C02403E
:100E000008380240FC1D00081400002008484FF478
:100E1000E052016892FAA2F2064801F4E051B2FAF7
:100E200082F2D140044A0068515CC840704700001B
:100E300008380240140000200C1E000808484FF437
:100E40006042016892FAA2F2064801F46041B2FAE7
:100E500082F2D140044A0068515CC84070470000EB
:100E600008380240140000200C1E00081D4930B54F
:100E70001D48096811F00C011AD01C4B042916D02A
:100E8000082915D1174947F6C072091F0C680D686B
:100E900004F03F046D020CD50D68B3FBF4F092FA38
:100EA000A2F31540B3FA83F2D54068430BE018462D
:100EB00030BD0B68B0FBF4F092FAA2F41340B4FA20
:100EC00084F2D340584309684FF4403292FAA2F2B8
:100ED00001F44031B2FA82F2D140491C4900B0FB22
:100EE000F1F030BD083802400024F40040787D0164
:100EF0002DE9F84FDFF86093054600780027A9F147
:100F0000040AAAF10404C0074CD0D9F800104846DE
:100F1000C1F38101012908D00068C0F381000228D3
:100F20000AD1DAF80000400206D52068800339D5DE
:100F30006868002870D035E06868B0F5803F0BD055
:100F400010B1B0F5A02F11D0206820F480302060BF
:100F5000206820F4802002E0206840F48030206087
:100F6000686890B1FFF78EFA06460AE0206840F400
:100F700080202060F0E700BFFFF784FA801B642820
:100F800076D820688003F7D50CE0FFF77BFA064699
:100F900005E000BFFFF776FA801B6428F0D82068D0
:100FA0008003F7D42878800746D5D9F80010484642
:100FB0004FF0F80811F00C0F08D00068C0F3810062
:100FC00002280AD1DAF80000400206D4206880071F
:100FD00016D5E86801281FD112E0E86800282068CB
:100FE0001BD040F001002060FFF74CFA064604E0F9
:100FF000FFF748FA801B0228C2D820688007F7D57F
:101000002869226898FAA8F1B1FA81F1884022F0A3
:10101000F801014321600FE01BE120F00100206096
:10102000FFF730FA064604E0FFF72CFA801B02288F
:10103000A6D820688007F7D42878000729D58648E5
:1010400069696C3000298046016812D041F00101C5
:101050000160FFF717FA064605E000BFFFF712FA36
:10106000801B022804D8D8F800008007F6D510E0CD
:1010700089E021F001010160FFF704FA064604E06F
:10108000FFF700FA801B02287DD8D8F800008007FF
:10109000F6D4287840076BD5DFF8BC8108F1380812
:1010A000D8F80000C0000BD4D8F8001041F08051EF
:1010B000C8F80010D8F80000012700F08050009018
:1010C00066480168C90512D40168834641F48071FD
:1010D0000160FFF7D7F9064605E000BFFFF7D2F938
:1010E000801B64284FD8DBF80000C005F6D55A4EA7
:1010F000A868683601280AD008B1052811D03068E0
:1011000020F001003060306820F0040002E0306818
:1011100040F001003060A868A0B1FFF7B3F9834642
:101120000CE0306840F004003060F0E7FFF7AAF907
:10113000A0EB0B0141F28830814224D8306880074F
:10114000F4D50EE0FFF79EF9834607E0FFF79AF922
:10115000A0EB0B0141F28830814272D830688007E1
:10116000F4D42FB1D8F8001021F08051C8F8001045
:10117000A869E8B3D9F80010C1F38101022968D049
:101180000228206800E05CE020F08070206003D03E
:10119000FFF778F9054657E0FFF774F9064604E0D3
:1011A000FFF770F9801B02284BD820688001F7D424
:1011B00047F6C0704FF0FF37D5E9091290FAA0F357
:1011C0004FF44036D5E9070C96FAA6F607EB520223
:1011D000B3FA83F34FF07067B6FA86F8994097FA3E
:1011E000A7F702FA08F24FF0E04640EA0C0000E0F0
:1011F0002DE01143D5E90B3296FAA6F5B7FA87F739
:10120000B5FA85F5BB400843AA4018431043CAF815
:101210000000206840F080702060FFF733F9054639
:1012200005E000BFFFF72EF9401B022809D820680F
:101230008001F7D50BE000BFFFF724F9401B02281F
:1012400002D90320BDE8F88F20688001F4D4002083
:10125000F8E70120F6E7000008380240007000407F
:10126000401EB0F1807F10B501D3012010BD4FF0BA
:10127000E02460610F21601700F066FA0020A06191
:101280000721216110BD704770B501680446C86927
:101290000A688B6810F00F0F5CD003F0010502F4B0
:1012A00090762E4369D0C60707D0D60505D501260E
:1012B0000E62E16E41F00101E166810708D5D907B0
:1012C00006D0266802213162E16E41F00401E16638
:1012D000410708D5D90706D0236804211962E16EB9
:1012E00041F00201E16601070AD502F0200129431D
:1012F00006D0236808211962E16E41F00801E16619
:10130000E16E002932D0800604D5900602D5204631
:1013100000F03AFBE06E000703D4206880684006C6
:1013200025D5204600F022FB2068816849061AD5A1
:10133000816821F040018160606EA0B12F49016594
:10134000606EFEF79BFF002810D0606E016DBDE857
:1013500070400847830610D593060ED52046BDE899
:10136000704000F011BB2046FFF78DFF70BD204696
:10137000FFF789FF0020E06670BD03062FD5130636
:101380002DD594F869002128F6D1B4F8520020B187
:10139000A068B0F5805F0AD00BE0086820F08000FC
:1013A00008602068016841F04001016070BD20695B
:1013B00060B1E06C411CE16421680078C1F828004C
:1013C000B4F85200401EA4F8520070BDE06C0088D2
:1013D000C0F308008862E06C801CE064F0E740061F
:1013E000F3D55006F1D50B682022204623F04003A8
:1013F0000B6084F8692000F0BBF870BD5919000833
:1014000010B5040003D094F8690010B107E0012082
:1014100010BD002084F86800204600F027F8242042
:1014200084F869002068016821F00101016020460C
:1014300000F0E6FA0128EBD0606A10B1204600F017
:1014400007FA2068416821F4904141602068816872
:1014500021F02A0181602068016841F001010160EA
:101460002046BDE8104000F057BA000010B586B025
:10147000044614216846FEF7E2FE164920688842B9
:1014800026D11548016841F020010160006800F094
:101490002000059010481438016841F040010160B7
:1014A00000680221002200F0400005900323082478
:1014B0004FF484408DE81F0008486946FEF7F0FEAF
:1014C000002247201146FFF72FF84720FFF720F8AA
:1014D00006B010BD0014014044380240001802401C
:1014E00010B590F86A30202B3FD1C9B1C2B190F845
:1014F0006830012B39D083680124416580F8684049
:10150000A0F85820A0F85A20B3F5805F4FF0FF01F3
:1015100008D04FF07F0253B1B3F1805F0CD011E0DF
:10152000012010BD026922B940F2FF1101E00369F8
:1015300033B9A0F85C1005E0016909B13F21F8E773
:10154000A0F85C2000212222C16680F86A2080F881
:10155000681001688A6842F001028A6000680168C8
:1015600041F490710160002010BD022010BD704751
:101570007047FEE72DE9F04F87B014216846FEF76B
:101580005EFE4348016841F020010160016801F0FE
:1015900020010591016841F004010160016801F03A
:1015A00004010591016841F001010160016801F049
:1015B00001010591016841F002010160016801F03B
:1015C00002010591016841F008010160016801F024
:1015D00008010591016841F04001016000680022A6
:1015E000DFF8B090102100F0400005904846FEF76B
:1015F00043FFDFF8A4A00022C4215046FEF73CFFC1
:10160000DFF898B048F21006002231465846FEF73F
:1016100033FF4AF27E07224800223946FEF72CFFAC
:101620004FF440581F4800224146FEF725FF002492
:101630006946012510200090CDE9015448460394E5
:10164000FEF72EFEC4200090CDE9015469465046B5
:101650000394FEF725FE00966946CDE901545846ED
:101660000394FEF71DFE00976946CDE901540C482E
:101670000394FEF715FECDF800806946CDE90154CC
:1016800008480394FEF70CFE07B0BDE8F08F000099
:1016900030380240001402400008024000000240BE
:1016A00000040240000C02400A48002130B4084CFB
:1016B0000C224FF416530460C0E90131C160C0E947
:1016C00004128161C1610162416230BCFFF798BEC2
:1016D000001401401800002070B5174C0022402172
:1016E0002046FEF7C9FE154D4FF400460022314654
:1016F0002846FEF7C1FE00222846B110FEF7BCFEC8
:1017000031460F4E00223046FEF7B6FE002220463C
:101710008021FEF7B1FE002228462021FEF7ACFE14
:10172000002228460821FEF7A7FE3046BDE870409B
:1017300000221021FEF7A0BE000802400004024073
:1017400000000240FEE77047090700284FEA1161D8
:1017500006DA00F00F0000F1E02080F8141D704759
:1017600000F1E02080F80014704770477047FEF7E2
:101770008FBE000010B5B8B0342124A8FEF75FFD7D
:10178000142131A8FEF75BFD90216846FEF757FD56
:101790001848016841F080510160006800F08050F5
:1017A00036901548016821F4404141F480410160C0
:1017B000006802210122249100F44040369010205C
:1017C00000242A94CDE9272024A8FFF791FB0F20BD
:1017D000CDE931040021339431A834943594FFF7D6
:1017E00063FA4FF40060169400906846FEF7CEFE50
:1017F00038B010BD4038024000700040104A30B58B
:101800001048146800210F4B44F47004146008332E
:1018100005680D4A0D4C45F0010505601960036827
:10182000051D1340074A03600C322C600568E30570
:10183000034C25F480250560803C1160236030BD99
:1018400088ED00E000380240FFFFF6FE1030002473
:1018500090F82410C90706D00168836A4A6822F408
:1018600000321A434A6090F82410890706D50168AF
:10187000C36A4A6822F480321A434A6090F82410FE
:10188000490706D50168036B4A6822F480221A438F
:101890004A6090F82410090706D50168436B4A682E
:1018A00022F400421A434A6090F82410C90606D573
:1018B0000168836B8A6822F480521A438A6090F828
:1018C0002410890606D50168C36B8A6822F4005289
:1018D0001A438A6090F82410490611D50168036CF8
:1018E0004A6822F480121A434A60016CB1F5801FE5
:1018F00006D10168436C4A6822F4C0021A434A6068
:1019000090F82410090606D50168826C486820F416
:10191000002010434860704738B500250446C5666E
:10192000FEF7B0FD03462068006800070BD56FF096
:101930007E400090002220464FF4001100F08CF908
:1019400008B1032038BD202084F8690084F868506D
:1019500084F86A00002038BD10B5806B0021A0F823
:101960005A10A0F85210FFF78EFC10BD016820221B
:101970000B6823F490730B6001688B6823F00103FC
:101980008B6080F86A20704710B590F86A10B0F844
:101990005C202229016805D0886940F00800886130
:1019A000022010BD8368B3F5805F01D1036973B174
:1019B0004B6A416D13404A1C42650B70B0F85A10D7
:1019C000491E0904090CA0F85A1008D016E04B6A09
:1019D000416D13400B80416D891C4165EEE7016844
:1019E00020220B6823F490730B6001688B6823F04E
:1019F00001038B6080F86A20FFF7B9FD002010BD5D
:101A00002DE9F04704468068874B884F2668D4E963
:101A10000415E2690843D6F800C0102115430022DE
:101A2000284315460CEA030C814B4CEA000CC6F81F
:101A300000C04FF400492068D4F80CC0466826F472
:101A4000405646EA0C0646602668D4F82080A06915
:101A5000D6F808C040EA08002CF4306C4CEA000CC0
:101A6000C6F808C02068B8420AD11B6813F0030307
:101A700052D0012B7AD0022B76D0032B79D177E08C
:101A80006C4EB0420AD11B6813F00C036AD0042BD1
:101A90006CD0082B68D00C2B6BD169E0664EB0423D
:101AA0000AD11B6813F030035CD0102B5ED0202BC2
:101AB0005AD0302B5DD15BE0604EB0420AD11B683A
:101AC00013F0C0034ED0402B50D0802B4CD0C02BF5
:101AD0004FD14DE05A4EB0420DD11B6813F4407304
:101AE00040D0B3F5807F41D0B3F5007F3CD0B3F553
:101AF000407F3ED13CE0534EB0420FD11B6813F4FF
:101B0000406309D0B3F5806F30D0B3F5006F2BD0B0
:101B1000B3F5406F2DD12BE001212AE04A4EB042AF
:101B20000DD11B6813F440531CD0B3F5805F1DD05A
:101B3000B3F5005F18D0B3F5405F1AD118E0434EFB
:101B4000B04216D11B6813F440430BD0B3F5804F5D
:101B50000CD04B4508D0B3F5404F0AD108E005E062
:101B600002E0FFE7002104E0022102E0042100E09E
:101B70000821E6694E452AD109291FD2DFE801F084
:101B80000508141E171E1E1E1A00FFF73FF901E07C
:101B9000FFF754F90146D4F80400490001EB500165
:101BA000B1FBF0F082B20AE029496068F6E7FFF77E
:101BB0005DF9EFE760684FF48031EFE701252168B8
:101BC00022F00F00C2F342021043C86028E0092946
:101BD00025D2DFE801F005080B24102424241C0082
:101BE000FFF714F909E0FFF729F906E06168194ADF
:101BF00002EB51020EE0FFF739F90146D4E900206B
:101C000001EB5001B1FBF0F080B2D06008E06168F8
:101C100009EB5102B2FBF1F189B2C16000E001258C
:101C20002846BDE8F0870000F369FFEF001001408F
:101C3000903802400044004000480040004C004002
:101C4000005000400014014000780040007C00403B
:101C50000048E8010024F4002DE9F04198461746B9
:101C60000E460446069D1DE0681C1BD02DB1FEF7F4
:101C700009FCA0EB0800A84214D321682020002210
:101C80000B6823F4D0730B6021688B6823F0010389
:101C90008B6084F8690084F86A00032084F8682067
:101CA000BDE8F0812068C06936EA000004D0002059
:101CB000B842D9D00020F3E70120F9E70148FFF747
:101CC000E3BA000018000020FEE702E008C8121F77
:101CD00008C1002AFAD170477047002001E001C115
:101CE000121F002AFBD17047FEF7DAFBFFF742FD17
:101CF000FFF740FCFFF7D8FCFFF7EEFC00F002F81E
:101D0000FAE700002DE9F0473A491A22A1F17000E4
:101D1000FFF7E6FBDFF8E0800020DFF8D8901A211B
:101D200088F8000098F8013098F8025098F80340BD
:101D300098F80420D8ED020A98ED030AC0B219F809
:101D400000607E2E3CD1C61CB6FBF1F7B44601FB09
:101D5000176719F80760922E09D01826BCFBF6F712
:101D600006FB17C719F80760972E3DD028E000F151
:101D70001505B5FBF1F76A1CB2FBF1F6531C941C78
:101D8000B4FBF1FC01FB1755B3FBF1F701FB162285
:101D900001FB173601FB1C4719F8053019F80250F2
:101DA00019F8064019F8072005EB032600EE906AA3
:101DB00002EB042600EE106AF8EE600AB8EE400A64
:101DC000401CC0B288F800001A28B7D388F8013048
:101DD00088F80250C8ED020A88F8034088F8042009
:101DE00088ED030ABDE8F087B8F80600401CA8F8A3
:101DF0000600EBE788000020000000200000000043
:101E000000000000010203040607080900000000AA
:101E100001020304341E0008000000201800000026
:101E2000CA1C00084C1E0008180000209004000086
:101E3000DA1C0008000000000000000000000000A4
:0C1E400000000000000000000024F4007E
:04000005080001F9F5
:00000001FF
