:020000040800F2
:10000000D80400200D020008FB140008C7140008E3
:10001000F9140008190300087D1A00080000000008
:100020000000000000000000000000002115000892
:100030001B030008000000001F150008231500081E
:1000400027020008270200082702000827020008EC
:1000500027020008270200082702000827020008DC
:1000600027020008270200082702000827020008CC
:1000700027020008270200082702000827020008BC
:1000800027020008270200082702000827020008AC
:10009000270200082702000827020008270200089C
:1000A000270200082702000827020008270200088C
:1000B000270200082702000827020008270200087C
:1000C000270200082702000827020008270200086C
:1000D000270200082702000827020008270200085C
:1000E000270200082702000827020008270200084C
:1000F000270200082702000827020008270200083C
:10010000270200082702000827020008270200082B
:10011000270200082702000827020008270200081B
:10012000270200082702000827020008270200080B
:1001300027020008270200082702000827020008FB
:1001400027020008270200082702000827020008EB
:10015000270200082702000827020008711A000879
:1001600027020008270200082702000827020008CB
:1001700027020008270200082702000800000000EC
:1001800027020008270200082702000827020008AB
:10019000270200082702000827020008270200089B
:1001A000270200082702000827020008270200088B
:1001B000270200082702000827020008270200087B
:1001C000270200082702000800000000270200089C
:1001D000270200082702000827020008270200085B
:1001E000270200082702000827020008270200084B
:1001F0002702000827020008DFF80CD000F07AF888
:1002000000480047911B0008D8040020064880479A
:1002100006480047FEE7FEE7FEE7FEE7FEE7FEE7EB
:10022000FEE7FEE7FEE7FEE7B1150008F90100086A
:100230002DE9F05F0546002092469B46884606461B
:10024000814640241BE0284641464746224600F0AE
:1002500041F853465A46C01A914110D311461846E8
:10026000224600F028F82D1A67EB01084F46224677
:100270000120002100F01FF817EB00094E41201E5D
:10028000A4F10104DFDC484631462A464346BDE876
:10029000F09FD2B201E000F8012B491EFBD270475B
:1002A0000022F6E710B513460A4604461946FFF742
:1002B000F0FF204610BD202A04DB203A00FA02F1AC
:1002C000002070479140C2F1200320FA03F3194344
:1002D00090407047202A04DB203A21FA02F00021E6
:1002E000704721FA02F3D040C2F120029140084346
:1002F00019467047064C074D06E0E06840F00103E0
:1003000094E8070098471034AC42F6D3FFF778FF23
:10031000E41B0008041C0008FEE7704790F8351045
:10032000022903D08021416501207047052180F812
:1003300035100068016821F001010160002070475C
:100340002DE9F84FDFF89CE100224FF001084FF053
:10035000030B4FF00F0A00BF0B6808FA02F42340AA
:10036000A34271D14D68022D01D0122D0FD1D508B5
:100370000E69570700EB8505A9462D6AFF0E0AFA9C
:1003800007FCBE4025EA0C052E43C9F820600F7912
:10039000550006680BFA05FC07F0030726EA0C0671
:1003A000AF40374307604E68012E05D0022E03D0C0
:1003B000112E01D0122E0ED18668CF6826EA0C06C7
:1003C000AF403743876046680F79A643C7F30017ED
:1003D000974037434760C4688E6824EA0C04AE40F7
:1003E0002643C6604C68E40075D53F4C256845F44B
:1003F00080452560246822F00306950704F48044B4
:1004000000943A4C2D0F2644D6F80848DFF8E0C097
:100410000AFA05F7604524EA070401D100272EE017
:10042000344FB84201D1012729E0334FB84201D1FE
:10043000022724E0314FB84201D103271FE0304F9B
:10044000B84202D104271AE045E02E4FB84201D14C
:10045000052714E02C4FB84201D106270FE02B4F9F
:10046000B84201D107270AE0294FB84201D1082735
:1004700005E0284FB84201D1092700E00A27AF4024
:1004800027437546C6F808784E68DEF80040F60344
:1004900024EA030400D51C43124E2C60361D4D681F
:1004A0003468AD0324EA030400D51C430D4F3460C7
:1004B00008374D683C68ED0224EA030400D51C436C
:1004C000084D3C600C354E682C68B60224EA0304E3
:1004D00000D51C432C60521C102AFFF43DAFBDE830
:1004E000F88F0000003C01404438024000300140D9
:1004F000000002400004024000080240000C0240DC
:10050000001002400014024000180240001C02408B
:10051000002002400024024001488068704700002B
:100520003C000020024881680278114481607047D5
:100530003C000020032010B500F06CF8002000F013
:1005400005F800F023F8002010BD000070B50D4D37
:1005500004464FF47A700C4A29781268B0FBF1F027
:10056000B2FBF0F000F08CFD48B9102C07D200224D
:100570002146501E00F02EF800206C6070BD012056
:1005800070BD00003C000020480000200A4808B56B
:10059000016841F080510160006800F080500090D7
:1005A0000548001D016841F480410160006800F4C5
:1005B0008040009008BD000040380240410900F032
:1005C0001F028900012001F1E0219040C1F80001E3
:1005D000704700000E4BF0B41B680D46C3F30223B6
:1005E000C3F10706042E00D90426191D072901D2DC
:1005F000002300E0DB1E012404FA06F19C40491EA2
:100600002940641E994014402143F0BC00F076BF9D
:100610000CED00E0064900F0070210B54FF6FF04AC
:100620000868044B204040EA02201843086010BDCF
:100630000CED00E00000FA052DE9F84F04460078C3
:10064000DFF824944FF000063746C0070ED0D9F8E3
:10065000001021F40001C9F80010D9F80010626BF5
:100660001143C9F80010606B00B90126FE4D2068E7
:10067000843500030ED5E16B286820F44010084350
:100680002860E06BB0F5801F01D010B102E00126B8
:1006900000E0012720684FF4800BC0020CD5216CCC
:1006A000286820F4400008432860206C584501D198
:1006B000012601E000B901272068C10100D501260B
:1006C000800666D5E8483830016841F08051016005
:1006D0000068DFF898A300F080500090DAF800106E
:1006E00041F48071CAF80010FFF716FF804605E05C
:1006F000FFF712FFA0EB080064287DD8DAF80000AD
:10070000C005F5D5DFF8608308F16808D8F8000067
:1007100010F440702AD0218E01F44071814225D01E
:10072000D8F80010D8F8002021F4407142F480324B
:10073000C8F80020D8F8002022F48032C8F8002041
:10074000C8F80010D8F80000C0070FD0FFF7E4FE8B
:10075000824607E0FFF7E0FEA0EB0A0141F2883095
:100760008142CAD8D8F800008007F3D5206BC0F3C7
:10077000012103297ED0D9F8001021F4F811C9F81D
:100780000010228ED8F80010C2F30B021143C8F8F3
:1007900000102078C00607D5286820F080702860F7
:1007A0002868A16B084328602188AF488830490435
:1007B00005D5626E016821F4403111430160218842
:1007C000090405D5A26E016821F44021114301609E
:1007D0002168C90305D5E26E016821F44011114377
:1007E00001602168890305D5226F016821F4400169
:1007F00011430160217800E034E1490605D5626CBF
:10080000016821F00301114301602178090605D533
:10081000A26C016821F00C01114301602188C90517
:1008200005D5E26C016821F0300111430160218897
:10083000890505D5226D016821F0C00111430160D1
:100840002188490505D5626D016821F44071114385
:1008500001602188090505D5A26D016821F4406178
:10086000114301602188C90407D5E26D016821F4B4
:10087000405100E05FE0114301602188890405D503
:10088000226E016821F44041114301602168490250
:1008900005D5A26F016821F08061114301602168D4
:1008A0004FF0006A890209D5E26F016821F000610A
:1008B00011430160E16F514500D1012721680A070A
:1008C00000D50127490305D5626F016821F0407109
:1008D000114301602168090206D5D4F8802001681F
:1008E00021F08051114301602168490106D5D4F8F7
:1008F0008420016821F0005111430160206800014B
:1009000006D5D4F88810286820F0007008432860C5
:100910002068C00006D5D4F88C10286820F08060CC
:1009200008432860DFF84891012E0ED02068B0F10E
:10093000007F0AD08FE04F4AD9F80030104023F4EE
:10094000F8120243C9F800201BE7D9F800004E4610
:1009500020F08060C9F80000FFF7DEFD804605E06A
:10096000FFF7DAFDA0EB080064287BD830680001AF
:10097000F6D421783C487C30C90712D0616B81B92C
:10098000237A62680168D0F800C09201C1F3014186
:1009900042EA0142CCF3036142EA016141EA037198
:1009A000016021680A0303D5E26BB2F5801F04D011
:1009B000C9021AD5216C594517D16368016894F8AA
:1009C0000CC002689B01C1F3014143EA0141C2F33B
:1009D000027241EA0C6141EA027101602968626AAF
:1009E00021F01F01521E114329602168C90110D551
:1009F000238A62680168D0F800C09201C1F30361E4
:100A000042EA034242EA0162CCF3027142EA017116
:100A10000160216889010CD56168228A237B94F8E2
:100A200008C0890141EA024141EA036141EA0C71CF
:100A300001603168B04641F080613160FFF76CFDC4
:100A4000064604E0FFF768FD801B64280AD8D8F842
:100A500000000001F6D5E7B3D9F800004E4620F0BB
:100A6000805009E07BE00000083802400070004040
:100A700000380240FFFCFF0FC9F80000FFF74CFDF3
:100A8000074604E0FFF748FDC01B642867D83068BC
:100A9000C0438000F6D5216835480A0301D5E26BD2
:100AA0001AB1C9021DD5216CD9B963690168277EC5
:100AB00002689B01C1F3014143EA0143C2F30271A1
:100AC00043EA076242EA0171016029686FF0FF039F
:100AD00000E04BE0A26A21F4F85103EB022211433B
:100AE00029602168890212D5E16F51450FD1238C0D
:100AF0006269016807689201C1F3036142EA034237
:100B000042EA0162C7F3027142EA01710160217891
:100B1000090716D561690268D0F800C08B01277FEC
:100B2000C2F30362CCF3014143EA014141EA0261AD
:100B300041EA077101602868E16A20F44030084307
:100B40002860306840F080503060FFF7E5FC0446D4
:100B500008E000BFFFF7E0FC001B642802D9032077
:100B6000BDE8F88F3068C0438000F3D40020F7E779
:100B7000883802402DE9F04705000F4663D0444E07
:100B8000306800F00F00B84209D2306820F00F0042
:100B900038433060306800F00F00B84253D1286805
:100BA0003C4C810712D5400703D5206840F4E05043
:100BB00020602878000703D5206840F4604020605A
:100BC000A968206820F0F000084320602878C0075A
:100BD0002AD0304968680839012810D009680228ED
:100BE00010D0890700292EDA216821F00301014382
:100BF0002160FFF791FC804641F288390DE00968D9
:100C00008903EFE78901EDE7FFF786FCA0EB080118
:100C1000494502D90320BDE8F0876868216801F0E2
:100C20000C01B1EB800FEFD1306800F00F00B8423B
:100C30000BD9306820F00F0038433060306800F086
:100C40000F00B84201D00120E5E72878400705D51C
:100C5000E968206820F4E050084320602878000705
:100C600006D52869216821F4604141EAC00020606E
:100C700000F036F82168084AC1F30311515CC840FE
:100C8000064908600020FFF761FC0020C3E7000070
:100C9000003C024008380240CC1B000848000020FD
:100CA0000449054809680068044AC1F38221515C7F
:100CB000C84070470838024048000020DC1B00088C
:100CC0000449054809680068044AC1F34231515C8F
:100CD000C84070470838024048000020DC1B00086C
:100CE000154910B51548096811F00C0213D01449C4
:100CF000042A0FD0082A0ED10F4C241F2268236823
:100D000002F03F025B0207D52068C0F38810A0FB09
:100D1000010106E0084610BD2168C1F38811A1FB5E
:100D200000010023FFF784FA2168C1F30141491C47
:100D30004900B0FBF1F010BD083802400024F40077
:100D400040787D012DE9F84F05004FF000076ED087
:100D50002878DFF82093A9F1040AC007AAF1040457
:100D60004CD0D9F800104846C1F38101012908D0C0
:100D70000068C0F3810002280AD1DAF800004002BE
:100D800006D52068800339D568680028DFD035E0B3
:100D90006868B0F5803F0BD010B1B0F5A02F11D02E
:100DA000206820F480302060206820F4802002E059
:100DB000206840F480302060686890B1FFF7ACFB99
:100DC00006460AE0206840F480202060F0E700BF7B
:100DD000FFF7A2FB801B642872D820688003F7D538
:100DE0000CE0FFF799FB064605E000BFFFF794FB18
:100DF000801B6428F0D820688003F7D42878800707
:100E000042D5D9F80010484611F00C0F08D0006800
:100E1000C0F3810002280BD1DAF80000400207D4A9
:100E20002068800718D5E868012800D114E01EE189
:100E3000E8680028206817D040F001002060FFF724
:100E40006BFB064605E000BFFFF766FB801B022830
:100E5000C2D820688007F7D52869216821F0F801F9
:100E600041EAC00020600FE020F001002060FFF7A1
:100E700053FB064605E000BFFFF74EFB801B022830
:100E80001ED820688007F7D42878000729D579482C
:100E900069696C3000298046016812D041F0010177
:100EA0000160FFF739FB064605E000BFFFF734FBA2
:100EB000801B022804D8D8F800008007F6D510E07F
:100EC00089E021F001010160FFF726FB064604E0FE
:100ED000FFF722FB801B02287DD8D8F8000080078E
:100EE000F6D4287840076BD5DFF8888108F13808F8
:100EF000D8F80000C0000BD4D8F8001041F08051A1
:100F0000C8F80010D8F80000012700F080500090C9
:100F100059480168C90512D40168834641F48071BB
:100F20000160FFF7F9FA064605E000BFFFF7F4FAA3
:100F3000801B64284FD8DBF80000C005F6D54D4E65
:100F4000A868683601280AD008B1052811D0306891
:100F500020F001003060306820F0040002E03068CA
:100F600040F001003060A868A0B1FFF7D5FA8346D1
:100F70000CE0306840F004003060F0E7FFF7CCFA96
:100F8000A0EB0B0141F28830814268D830688007BD
:100F9000F4D50EE0FFF7C0FA834607E0FFF7BCFA8E
:100FA000A0EB0B0141F28830814258D830688007AD
:100FB000F4D42FB1D8F8001021F08051C8F80010F7
:100FC000A869E0B3D9F80010C1F3810102294ED01D
:100FD0000228206800E042E020F08070206003D00A
:100FE000FFF79AFA05463DE0FFF796FA064604E059
:100FF000FFF792FA801B022831D820688001F7D4CD
:10100000D5E90921DFF874C0D5E9070695F8303035
:101010004F0895F82C1030430CEB074545EA821237
:10102000104340EA016040EA0370CAF800002068FB
:1010300040F080702060FFF76FFA054605E014E08D
:10104000FFF76AFA401B022809D820688001F7D50B
:101050000BE000BFFFF760FA401B022802D9032013
:10106000BDE8F88F20688001F4D40020F8E7012063
:10107000F6E7000008380240007000400000FFFF63
:10108000401EB0F1807F10B501D3012010BD4FF09C
:10109000E02460610F21601700F030FA0020A061A9
:1010A0000721216110BD704770B501680446C86909
:1010B0000A688B6810F00F0F5CD003F0010502F492
:1010C00090762E4369D0C60707D0D60505D50126F0
:1010D0000E62E16E41F00101E166810708D5D90792
:1010E00006D0266802213162E16E41F00401E1661A
:1010F000410708D5D90706D0236804211962E16E9B
:1011000041F00201E16601070AD502F020012943FE
:1011100006D0236808211962E16E41F00801E166FA
:10112000E16E002932D0800604D5900602D5204613
:1011300000F004FBE06E000703D4206880684006DE
:1011400025D5204600F0ECFA2068816849061AD5BA
:10115000816821F040018160606EA0B12F49016576
:10116000606EFFF7DBF8002810D0606E016DBDE8FF
:1011700070400847830610D593060ED52046BDE87B
:10118000704000F0DBBA2046FFF78DFF70BD2046AF
:10119000FFF789FF0020E06670BD03062FD5130618
:1011A0002DD594F869002128F6D1B4F8520020B169
:1011B000A068B0F5805F0AD00BE0086820F08000DE
:1011C00008602068016841F04001016070BD20693D
:1011D00060B1E06C411CE16421680078C1F828002E
:1011E000B4F85200401EA4F8520070BDE06C0088B4
:1011F000C0F308008862E06C801CE064F0E7400601
:10120000F3D55006F1D50B682022204623F0400389
:101210000B6084F8692000F055F970BD0D170008C7
:1012200010B5040003D094F8690010B107E0012064
:1012300010BD002084F86800204600F027F8242024
:1012400084F869002068016821F0010101602046EE
:1012500000F0B0FA0128EBD0606A10B1204600F02F
:10126000D1F92068416821F490414160206881688B
:1012700021F02A0181602068016841F001010160CC
:101280002046BDE8104000F021BA000010B586B03D
:10129000044614216846FFF703F81649206888427F
:1012A00026D11548016841F020010160006800F076
:1012B0002000059010481438016841F04001016099
:1012C00000680221002200F040000590032308245A
:1012D0004FF484408DE81F0008486946FFF730F856
:1012E000002247201146FFF775F94720FFF766F9FE
:1012F00006B010BD001401404438024000180240FE
:1013000010B590F86A30202B3FD1C9B1C2B190F826
:101310006830012B39D083680124416580F868402A
:10132000A0F85820A0F85A20B3F5805F4FF0FF01D5
:1013300008D04FF07F0253B1B3F1805F0CD011E0C1
:10134000012010BD026922B940F2FF1101E00369DA
:1013500033B9A0F85C1005E0016909B13F21F8E755
:10136000A0F85C2000212222C16680F86A2080F863
:10137000681001688A6842F001028A6000680168AA
:1013800041F490710160002010BD022010BD0000EA
:101390002DE9F047484C0020DFF820A11A262DED5A
:1013A000048BA07094F80590A779E279217AD4EDA6
:1013B000038A94ED048AA57850461AF805307E2BEE
:1013C00062D1EB1CB3FBF6FC06FB1C3C10F80CC016
:1013D000BCF1920F0AD04FF0180CB3FBFCF80CFBD9
:1013E00018331AF80300972861D04DE005F1150174
:1013F000D046B1FBF6F34A1CB2FBF6F0BCEEE80AAD
:10140000FCEEC80A9FED2E9A06FB131710EE101A79
:1014100006FB102010EE903AE17023711AF80710C5
:101420001AF80070894607EB012000EE100AF8EE6A
:10143000408A28EE890AB7EEC00A00F021FBBCEE14
:10144000C00B10EE100A28EE090A2070B7EEC00A91
:1014500000F016FB05F11700411CB0FBF6F3B1FBE1
:10146000F6FCBCEEC00B06FB130006FB1C1110EED5
:10147000102A627018F8002018F8011001EB022001
:1014800000EE100AB8EE408A6D1CE8B2A0701A286F
:1014900091D300BF84F80590A771C4ED038AE2716F
:1014A000217284ED048ABDEC048BBDE8F08760896D
:1014B000401C6081EEE7000000000020BC0000201E
:1014C0000000003C7047FEE70A48002130B4084C99
:1014D0000C224FF416530460C0E90131C160C0E929
:1014E00004128161C1610162416230BCFFF798BEA4
:1014F000001401404C000020FEE770470907002857
:101500004FEA116106DA00F00F0000F1E02080F8E8
:10151000141D704700F1E02080F8001470477047F8
:101520007047FEF7FFBF000010B5B8B0342124A803
:10153000FEF7B6FE142131A8FEF7B2FE90216846F0
:10154000FEF7AEFE1848016841F080510160006866
:1015500000F0805036901548016821F4404141F474
:1015600080410160006802210122249100F4404082
:101570003690102000242A94CDE9272024A8FFF7D4
:10158000E1FB0F20CDE931040021339431A83494DC
:101590003594FFF7EFFA4FF4006016940090684618
:1015A000FFF74AF838B010BD4038024000700040E4
:1015B000104A30B51048146800210F4B44F47004F1
:1015C0001460083305680D4A0D4C45F001050560AF
:1015D00019600368051D1340074A03600C322C6034
:1015E0000568E305034C25F480250560803C116007
:1015F000236030BD88ED00E000380240FFFFF6FEBA
:101600001030002490F82410C90706D00168836ABE
:101610004A6822F400321A434A6090F8241089077D
:1016200006D50168C36A4A6822F480321A434A60C8
:1016300090F82410490706D50168036B4A6822F424
:1016400080221A434A6090F82410090706D50168E1
:10165000436B4A6822F400421A434A6090F824100F
:10166000C90606D50168836B8A6822F480521A4342
:101670008A6090F82410890606D50168C36B8A68D1
:1016800022F400521A438A6090F82410490611D5BA
:101690000168036C4A6822F480121A434A60016CA4
:1016A000B1F5801F06D10168436C4A6822F4C0027C
:1016B0001A434A6090F82410090606D50168826C26
:1016C000486820F4002010434860704738B5002572
:1016D0000446C566FEF720FF034620680068000741
:1016E0000BD56FF07E400090002220464FF4001191
:1016F00000F08CF908B1032038BD202084F869007F
:1017000084F8685084F86A00002038BD10B5806BFA
:101710000021A0F85A10A0F85210FFF7C4FC10BD29
:10172000016820220B6823F490730B6001688B68BA
:1017300023F001038B6080F86A20704710B590F8A1
:101740006A10B0F85C202229016805D0886940F051
:1017500008008861022010BD8368B3F5805F01D165
:10176000036973B14B6A416D13404A1C42650B70AB
:10177000B0F85A10491E0904090CA0F85A1008D0F4
:1017800016E04B6A416D13400B80416D891C416529
:10179000EEE7016820220B6823F490730B60016868
:1017A0008B6823F001038B6080F86A20FFF7F0FD5F
:1017B000002010BD2DE9F04704468068874B884F14
:1017C0002668D4E90415E2690843D6F800C0102160
:1017D00015430022284315460CEA030C814B4CEAC2
:1017E000000CC6F800C04FF400492068D4F80CC0C3
:1017F000466826F4405646EA0C0646602668D4F849
:101800002080A069D6F808C040EA08002CF4306CAB
:101810004CEA000CC6F808C02068B8420AD11B6820
:1018200013F0030352D0012B7AD0022B76D0032B76
:1018300079D177E06C4EB0420AD11B6813F00C03EB
:101840006AD0042B6CD0082B68D00C2B6BD169E0CC
:10185000664EB0420AD11B6813F030035CD0102BE7
:101860005ED0202B5AD0302B5DD15BE0604EB04271
:101870000AD11B6813F0C0034ED0402B50D0802BF0
:101880004CD0C02B4FD14DE05A4EB0420DD11B6809
:1018900013F4407340D0B3F5807F41D0B3F5007F9F
:1018A0003CD0B3F5407F3ED13CE0534EB0420FD127
:1018B0001B6813F4406309D0B3F5806F30D0B3F5E3
:1018C000006F2BD0B3F5406F2DD12BE001212AE022
:1018D0004A4EB0420DD11B6813F440531CD0B3F5EF
:1018E000805F1DD0B3F5005F18D0B3F5405F1AD10B
:1018F00018E0434EB04216D11B6813F440430BD09E
:10190000B3F5804F0CD04B4508D0B3F5404F0AD10A
:1019100008E005E002E0FFE7002104E0022102E028
:10192000042100E00821E6694E452AD109291FD289
:10193000DFE801F00508141E171E1E1E1A00FFF72F
:10194000AFF901E0FFF7BCF90146D4F80400490003
:1019500001EB5001B1FBF0F082B20AE02949606866
:10196000F6E7FFF7BDF9EFE760684FF48031EFE786
:101970000125216822F00F00C2F342021043C86023
:1019800028E0092925D2DFE801F005080B241024FE
:1019900024241C00FFF784F909E0FFF791F906E021
:1019A0006168194A02EB51020EE0FFF799F901460E
:1019B000D4E9002001EB5001B1FBF0F080B2D0601F
:1019C00008E0616809EB5102B2FBF1F189B2C16034
:1019D00000E001252846BDE8F0870000F369FFEF2D
:1019E0000010014090380240004400400048004090
:1019F000004C0040005000400014014000780040BE
:101A0000007C00400048E8010024F4002DE9F0418A
:101A1000984617460E460446069D1DE0681C1BD0DE
:101A20002DB1FEF779FDA0EB0800A84214D3216880
:101A3000202000220B6823F4D0730B6021688B6890
:101A400023F001038B6084F8690084F86A000320A6
:101A500084F86820BDE8F0812068C06936EA00009B
:101A600004D00020B842D9D00020F3E70120F9E7E4
:101A70000148FFF719BB00004C000020FEE7000002
:101A80002DED020B9FED340BDDE90010C0F30A527F
:101A90009FED331BA2F2FF32142A2DDA9DED002BAD
:101AA0009FED2D0B002A32EE000B10DAB4EEC01BB6
:101AB000F1EE10FA49D20028BCBF4FF000400021DF
:101AC00043DB50EA010218BF274813D13DE0274B02
:101AD000D34000EA030C5CEA010C17D0B4EEC10B52
:101AE000F1EE10FA31DD002803DD4FF48011D14012
:101AF00008449843002128E0332A07DCA2F11403AC
:101B00004FF0FF3C2CFA03F3194203D19DED000B7B
:101B100002B070479DED002B30EE420BB4EEC10BCE
:101B2000F1EE10FA11DD00280EDD142A08BF401C6A
:101B30000AD0C2F134024FF0010C0CFA02F20A444E
:101B40008A4238BF401C11469943CDE900109DEDF3
:101B5000000B02B0704700009C7500883CE4377EA3
:101B600000000000000000000000F03FFFFF0F0039
:101B700002E008C8121F08C1002AFAD17047704756
:101B8000002001E001C1121F002AFBD170470000B4
:101B900008B5FEF7CFFCFFF7C7FC0748016841F026
:101BA00040010160006800F040000090FFF78CFCED
:101BB00000F004F8FCE700003038024002491A2225
:101BC000A1F17000FFF79CBBBC00002000000000EA
:101BD00000000000010203040607080900000000DD
:101BE00001020304041C0008000000204C00000057
:101BF000701B0008501C00084C0000208C040000E2
:101C0000801B000800000000000000000000000031
:101C10000000FA430000FA437E001017010013A2EF
:101C20000041672167FFFE02443405867E001017DD
:101C3000010013A20041672167FFFE0244340487BC
:101C40000100000010000000000000000024F4006B
:04000005080001F9F5
:00000001FF
